{
  "contractName": "Ethergram",
  "abi": [
    {
      "anonymous": false,
      "inputs": [
        {
          "indexed": false,
          "internalType": "uint256",
          "name": "id",
          "type": "uint256"
        },
        {
          "indexed": false,
          "internalType": "string",
          "name": "hash",
          "type": "string"
        },
        {
          "indexed": false,
          "internalType": "string",
          "name": "description",
          "type": "string"
        },
        {
          "indexed": false,
          "internalType": "uint256",
          "name": "giftAmount",
          "type": "uint256"
        },
        {
          "indexed": false,
          "internalType": "address payable",
          "name": "author",
          "type": "address"
        }
      ],
      "name": "ImageCreated",
      "type": "event"
    },
    {
      "anonymous": false,
      "inputs": [
        {
          "indexed": false,
          "internalType": "uint256",
          "name": "id",
          "type": "uint256"
        },
        {
          "indexed": false,
          "internalType": "string",
          "name": "hash",
          "type": "string"
        },
        {
          "indexed": false,
          "internalType": "string",
          "name": "description",
          "type": "string"
        },
        {
          "indexed": false,
          "internalType": "uint256",
          "name": "giftAmount",
          "type": "uint256"
        },
        {
          "indexed": false,
          "internalType": "address payable",
          "name": "author",
          "type": "address"
        }
      ],
      "name": "ImageGifted",
      "type": "event"
    },
    {
      "anonymous": false,
      "inputs": [
        {
          "indexed": false,
          "internalType": "uint256",
          "name": "id",
          "type": "uint256"
        },
        {
          "indexed": false,
          "internalType": "string",
          "name": "hash",
          "type": "string"
        },
        {
          "indexed": false,
          "internalType": "string",
          "name": "description",
          "type": "string"
        },
        {
          "indexed": false,
          "internalType": "uint256",
          "name": "giftAmount",
          "type": "uint256"
        },
        {
          "indexed": false,
          "internalType": "address payable",
          "name": "from",
          "type": "address"
        },
        {
          "indexed": false,
          "internalType": "address payable",
          "name": "to",
          "type": "address"
        }
      ],
      "name": "ImageSale",
      "type": "event"
    },
    {
      "constant": true,
      "inputs": [],
      "name": "imageCount",
      "outputs": [
        {
          "internalType": "uint256",
          "name": "",
          "type": "uint256"
        }
      ],
      "payable": false,
      "stateMutability": "view",
      "type": "function"
    },
    {
      "constant": true,
      "inputs": [
        {
          "internalType": "uint256",
          "name": "",
          "type": "uint256"
        }
      ],
      "name": "images",
      "outputs": [
        {
          "internalType": "uint256",
          "name": "id",
          "type": "uint256"
        },
        {
          "internalType": "string",
          "name": "hash",
          "type": "string"
        },
        {
          "internalType": "string",
          "name": "description",
          "type": "string"
        },
        {
          "internalType": "uint256",
          "name": "giftAmount",
          "type": "uint256"
        },
        {
          "internalType": "address payable",
          "name": "author",
          "type": "address"
        }
      ],
      "payable": false,
      "stateMutability": "view",
      "type": "function"
    },
    {
      "constant": true,
      "inputs": [],
      "name": "name",
      "outputs": [
        {
          "internalType": "string",
          "name": "",
          "type": "string"
        }
      ],
      "payable": false,
      "stateMutability": "view",
      "type": "function"
    },
    {
      "constant": false,
      "inputs": [
        {
          "internalType": "string",
          "name": "_hash",
          "type": "string"
        },
        {
          "internalType": "string",
          "name": "_description",
          "type": "string"
        }
      ],
      "name": "uploadImage",
      "outputs": [],
      "payable": false,
      "stateMutability": "nonpayable",
      "type": "function"
    },
    {
      "constant": false,
      "inputs": [
        {
          "internalType": "uint256",
          "name": "_id",
          "type": "uint256"
        }
      ],
      "name": "giftImageOwner",
      "outputs": [],
      "payable": true,
      "stateMutability": "payable",
      "type": "function"
    },
    {
      "constant": false,
      "inputs": [
        {
          "internalType": "uint256",
          "name": "_id",
          "type": "uint256"
        }
      ],
      "name": "buyImage",
      "outputs": [],
      "payable": true,
      "stateMutability": "payable",
      "type": "function"
    }
  ],
  "bytecode": "0x60806040526040518060400160405280600981526020017f45746865726772616d000000000000000000000000000000000000000000000081525060009080519060200190620000519291906200006b565b5060006001553480156200006457600080fd5b506200011a565b828054600181600116156101000203166002900490600052602060002090601f016020900481019282601f10620000ae57805160ff1916838001178555620000df565b82800160010185558215620000df579182015b82811115620000de578251825591602001919060010190620000c1565b5b509050620000ee9190620000f2565b5090565b6200011791905b8082111562000113576000816000905550600101620000f9565b5090565b90565b611460806200012a6000396000f3fe6080604052600436106100555760003560e01c806303e6af2e1461005a57806306fdde0314610088578063848564821461011857806392053b6314610279578063a91b8314146102a4578063cde9b20514610403575b600080fd5b6100866004803603602081101561007057600080fd5b8101908080359060200190929190505050610431565b005b34801561009457600080fd5b5061009d6108d8565b6040518080602001828103825283818151815260200191508051906020019080838360005b838110156100dd5780820151818401526020810190506100c2565b50505050905090810190601f16801561010a5780820380516001836020036101000a031916815260200191505b509250505060405180910390f35b34801561012457600080fd5b506101516004803603602081101561013b57600080fd5b8101908080359060200190929190505050610976565b6040518086815260200180602001806020018581526020018473ffffffffffffffffffffffffffffffffffffffff1673ffffffffffffffffffffffffffffffffffffffff168152602001838103835287818151815260200191508051906020019080838360005b838110156101d35780820151818401526020810190506101b8565b50505050905090810190601f1680156102005780820380516001836020036101000a031916815260200191505b50838103825286818151815260200191508051906020019080838360005b8381101561023957808201518184015260208101905061021e565b50505050905090810190601f1680156102665780820380516001836020036101000a031916815260200191505b5097505050505050505060405180910390f35b34801561028557600080fd5b5061028e610afc565b6040518082815260200191505060405180910390f35b3480156102b057600080fd5b50610401600480360360408110156102c757600080fd5b81019080803590602001906401000000008111156102e457600080fd5b8201836020820111156102f657600080fd5b8035906020019184600183028401116401000000008311171561031857600080fd5b91908080601f016020809104026020016040519081016040528093929190818152602001838380828437600081840152601f19601f8201169050808301925050505050505091929192908035906020019064010000000081111561037b57600080fd5b82018360208201111561038d57600080fd5b803590602001918460018302840111640100000000831117156103af57600080fd5b91908080601f016020809104026020016040519081016040528093929190818152602001838380828437600081840152601f19601f820116905080830192505050505050509192919290505050610b02565b005b61042f6004803603602081101561041957600080fd5b8101908080359060200190929190505050610ee6565b005b610439611341565b600260008381526020019081526020016000206040518060a001604052908160008201548152602001600182018054600181600116156101000203166002900480601f0160208091040260200160405190810160405280929190818152602001828054600181600116156101000203166002900480156104fa5780601f106104cf576101008083540402835291602001916104fa565b820191906000526020600020905b8154815290600101906020018083116104dd57829003601f168201915b50505050508152602001600282018054600181600116156101000203166002900480601f01602080910402602001604051908101604052809291908181526020018280546001816001161561010002031660029004801561059c5780601f106105715761010080835404028352916020019161059c565b820191906000526020600020905b81548152906001019060200180831161057f57829003601f168201915b50505050508152602001600382015481526020016004820160009054906101000a900473ffffffffffffffffffffffffffffffffffffffff1673ffffffffffffffffffffffffffffffffffffffff1673ffffffffffffffffffffffffffffffffffffffff168152505090506000816080015190508073ffffffffffffffffffffffffffffffffffffffff166108fc349081150290604051600060405180830381858888f19350505050158015610656573d6000803e3d6000fd5b50600082606001818152505033826080019073ffffffffffffffffffffffffffffffffffffffff16908173ffffffffffffffffffffffffffffffffffffffff168152505081600260008581526020019081526020016000206000820151816000015560208201518160010190805190602001906106d4929190611386565b5060408201518160020190805190602001906106f1929190611386565b506060820151816003015560808201518160040160006101000a81548173ffffffffffffffffffffffffffffffffffffffff021916908373ffffffffffffffffffffffffffffffffffffffff1602179055509050507f2172d033a606b924d7b18b6ccb13d22a7c4541f8cd9675e6f9477530080a5a388383602001518460400151856060015185336040518087815260200180602001806020018681526020018573ffffffffffffffffffffffffffffffffffffffff1673ffffffffffffffffffffffffffffffffffffffff1681526020018473ffffffffffffffffffffffffffffffffffffffff1673ffffffffffffffffffffffffffffffffffffffff168152602001838103835288818151815260200191508051906020019080838360005b8381101561082d578082015181840152602081019050610812565b50505050905090810190601f16801561085a5780820380516001836020036101000a031916815260200191505b50838103825287818151815260200191508051906020019080838360005b83811015610893578082015181840152602081019050610878565b50505050905090810190601f1680156108c05780820380516001836020036101000a031916815260200191505b509850505050505050505060405180910390a1505050565b60008054600181600116156101000203166002900480601f01602080910402602001604051908101604052809291908181526020018280546001816001161561010002031660029004801561096e5780601f106109435761010080835404028352916020019161096e565b820191906000526020600020905b81548152906001019060200180831161095157829003601f168201915b505050505081565b6002602052806000526040600020600091509050806000015490806001018054600181600116156101000203166002900480601f016020809104026020016040519081016040528092919081815260200182805460018160011615610100020316600290048015610a285780601f106109fd57610100808354040283529160200191610a28565b820191906000526020600020905b815481529060010190602001808311610a0b57829003601f168201915b505050505090806002018054600181600116156101000203166002900480601f016020809104026020016040519081016040528092919081815260200182805460018160011615610100020316600290048015610ac65780601f10610a9b57610100808354040283529160200191610ac6565b820191906000526020600020905b815481529060010190602001808311610aa957829003601f168201915b5050505050908060030154908060040160009054906101000a900473ffffffffffffffffffffffffffffffffffffffff16905085565b60015481565b6000825111610b79576040517f08c379a00000000000000000000000000000000000000000000000000000000081526004018080602001828103825260148152602001807f496d6167652068617368206973206e656564656400000000000000000000000081525060200191505060405180910390fd5b6000815111610bf0576040517f08c379a000000000000000000000000000000000000000000000000000000000815260040180806020018281038252601b8152602001807f496d616765206465736372697074696f6e206973206e6565646564000000000081525060200191505060405180910390fd5b600073ffffffffffffffffffffffffffffffffffffffff163373ffffffffffffffffffffffffffffffffffffffff161415610c93576040517f08c379a00000000000000000000000000000000000000000000000000000000081526004018080602001828103825260118152602001807f41646472657373206973206e656564656400000000000000000000000000000081525060200191505060405180910390fd5b6001600081548092919060010191905055506040518060a001604052806001548152602001838152602001828152602001600081526020013373ffffffffffffffffffffffffffffffffffffffff16815250600260006001548152602001908152602001600020600082015181600001556020820151816001019080519060200190610d20929190611386565b506040820151816002019080519060200190610d3d929190611386565b506060820151816003015560808201518160040160006101000a81548173ffffffffffffffffffffffffffffffffffffffff021916908373ffffffffffffffffffffffffffffffffffffffff1602179055509050507fc1d8dfa99b3f84f95d3f0bc4a768addeb97b83b20aef7f9cb6729e126bafd2f960015483836000336040518086815260200180602001806020018581526020018473ffffffffffffffffffffffffffffffffffffffff1673ffffffffffffffffffffffffffffffffffffffff168152602001838103835287818151815260200191508051906020019080838360005b83811015610e3d578082015181840152602081019050610e22565b50505050905090810190601f168015610e6a5780820380516001836020036101000a031916815260200191505b50838103825286818151815260200191508051906020019080838360005b83811015610ea3578082015181840152602081019050610e88565b50505050905090810190601f168015610ed05780820380516001836020036101000a031916815260200191505b5097505050505050505060405180910390a15050565b600081118015610ef857506001548111155b610f0157600080fd5b610f09611341565b600260008381526020019081526020016000206040518060a001604052908160008201548152602001600182018054600181600116156101000203166002900480601f016020809104026020016040519081016040528092919081815260200182805460018160011615610100020316600290048015610fca5780601f10610f9f57610100808354040283529160200191610fca565b820191906000526020600020905b815481529060010190602001808311610fad57829003601f168201915b50505050508152602001600282018054600181600116156101000203166002900480601f01602080910402602001604051908101604052809291908181526020018280546001816001161561010002031660029004801561106c5780601f106110415761010080835404028352916020019161106c565b820191906000526020600020905b81548152906001019060200180831161104f57829003601f168201915b50505050508152602001600382015481526020016004820160009054906101000a900473ffffffffffffffffffffffffffffffffffffffff1673ffffffffffffffffffffffffffffffffffffffff1673ffffffffffffffffffffffffffffffffffffffff168152505090506000816080015190508073ffffffffffffffffffffffffffffffffffffffff166108fc349081150290604051600060405180830381858888f19350505050158015611126573d6000803e3d6000fd5b50348260600181815101915081815250508160026000858152602001908152602001600020600082015181600001556020820151816001019080519060200190611171929190611386565b50604082015181600201908051906020019061118e929190611386565b506060820151816003015560808201518160040160006101000a81548173ffffffffffffffffffffffffffffffffffffffff021916908373ffffffffffffffffffffffffffffffffffffffff1602179055509050507fac74583ba39b17dc0d6772ab16b01ce15b04074402e7375025b39c6d85dccabb83836020015184604001518560600151856040518086815260200180602001806020018581526020018473ffffffffffffffffffffffffffffffffffffffff1673ffffffffffffffffffffffffffffffffffffffff168152602001838103835287818151815260200191508051906020019080838360005b8381101561129757808201518184015260208101905061127c565b50505050905090810190601f1680156112c45780820380516001836020036101000a031916815260200191505b50838103825286818151815260200191508051906020019080838360005b838110156112fd5780820151818401526020810190506112e2565b50505050905090810190601f16801561132a5780820380516001836020036101000a031916815260200191505b5097505050505050505060405180910390a1505050565b6040518060a0016040528060008152602001606081526020016060815260200160008152602001600073ffffffffffffffffffffffffffffffffffffffff1681525090565b828054600181600116156101000203166002900490600052602060002090601f016020900481019282601f106113c757805160ff19168380011785556113f5565b828001600101855582156113f5579182015b828111156113f45782518255916020019190600101906113d9565b5b5090506114029190611406565b5090565b61142891905b8082111561142457600081600090555060010161140c565b5090565b9056fea265627a7a72315820d0f671777b5518f14827b9bebbf1a876ca3a13c20d415fa2841c54be088e0d3164736f6c63430005100032",
  "source": "// SPDX-License-Identifier: MIT\r\npragma solidity ^0.5.0;\r\n\r\ncontract Ethergram {\r\n    //contract name\r\n    string public name = \"Ethergram\";\r\n\r\n    uint256 public imageCount = 0;\r\n\r\n    //image creation event\r\n    event ImageCreated(\r\n        uint256 id,\r\n        string hash,\r\n        string description,\r\n        uint256 giftAmount,\r\n        address payable author\r\n    );\r\n    //gifting event\r\n    event ImageGifted(\r\n        uint256 id,\r\n        string hash,\r\n        string description,\r\n        uint256 giftAmount,\r\n        address payable author\r\n    );\r\n    //image Sale event\r\n    event ImageSale(\r\n        uint256 id,\r\n        string hash,\r\n        string description,\r\n        uint256 giftAmount,\r\n        address payable from,\r\n        address payable to\r\n    );\r\n\r\n    //Image storage\r\n    struct Image {\r\n        uint256 id;\r\n        string hash;\r\n        string description;\r\n        uint256 giftAmount;\r\n        address payable author;\r\n    }\r\n    mapping(uint256 => Image) public images;\r\n\r\n    //create image\r\n    function uploadImage(string memory _hash, string memory _description)\r\n        public\r\n    {\r\n        //ensure description was passed\r\n        require(bytes(_hash).length > 0, \"Image hash is needed\");\r\n\r\n        //ensure image description was passed\r\n        require(bytes(_description).length > 0, \"Image description is needed\");\r\n\r\n        //ensure address was provided\r\n        require(msg.sender != address(0x0), \"Address is needed\");\r\n\r\n        //increase image count\r\n        imageCount++;\r\n        //save image\r\n        images[imageCount] = Image(\r\n            imageCount,\r\n            _hash,\r\n            _description,\r\n            0,\r\n            msg.sender\r\n        );\r\n\r\n        //emit event\r\n        emit ImageCreated(imageCount, _hash, _description, 0, msg.sender);\r\n    }\r\n\r\n    //Gift image\r\n    function giftImageOwner(uint256 _id) public payable {\r\n        //ensure _id is valid\r\n        require(_id > 0 && _id <= imageCount);\r\n        //get image from storage\r\n        Image memory _image = images[_id];\r\n        //fetch author\r\n        address payable _author = _image.author;\r\n        //transfer value\r\n        _author.transfer(msg.value);\r\n        //add gift amount\r\n        _image.giftAmount += msg.value;\r\n\r\n        //store back in mapping\r\n        images[_id] = _image;\r\n\r\n        // emit event\r\n        emit ImageGifted(\r\n            _id,\r\n            _image.hash,\r\n            _image.description,\r\n            _image.giftAmount,\r\n            _author\r\n        );\r\n    }\r\n\r\n    //Buy Image\r\n    function buyImage(uint256 _id) public payable {\r\n        Image memory _image = images[_id];\r\n        address payable _author = _image.author;\r\n        //pay\r\n        _author.transfer(msg.value);\r\n        //change gift amount to 0\r\n        _image.giftAmount = 0;\r\n        //change author\r\n        _image.author = msg.sender;\r\n        //store back to mapping\r\n        images[_id] = _image;\r\n\r\n        //emit image sale event\r\n        emit ImageSale(\r\n            _id,\r\n            _image.hash,\r\n            _image.description,\r\n            _image.giftAmount,\r\n            _author,\r\n            msg.sender\r\n        );\r\n    }\r\n}\r\n",
  "sourcePath": "C:\\Users\\Chukwunonso\\Desktop\\projects\\ethgram\\ethergram\\contracts\\Ethergram.sol",
  "compiler": {
    "name": "solc",
    "version": "0.5.16+commit.9c3226ce.Emscripten.clang"
  },
  "schemaVersion": "3.4.4",
  "updatedAt": "2022-01-03T11:04:44.192Z",
  "networkType": "ethereum",
  "devdoc": {
    "methods": {}
  },
  "userdoc": {
    "methods": {}
  }
}